{
  "_format": "hh-sol-artifact-1",
  "contractName": "Comment",
  "sourceName": "contracts/Comment.sol",
  "abi": [
    {
      "inputs": [
        {
          "internalType": "address",
          "name": "_tokenAddress",
          "type": "address"
        }
      ],
      "stateMutability": "nonpayable",
      "type": "constructor"
    },
    {
      "inputs": [],
      "name": "EnforcedPause",
      "type": "error"
    },
    {
      "inputs": [],
      "name": "ExpectedPause",
      "type": "error"
    },
    {
      "inputs": [
        {
          "internalType": "address",
          "name": "owner",
          "type": "address"
        }
      ],
      "name": "OwnableInvalidOwner",
      "type": "error"
    },
    {
      "inputs": [
        {
          "internalType": "address",
          "name": "account",
          "type": "address"
        }
      ],
      "name": "OwnableUnauthorizedAccount",
      "type": "error"
    },
    {
      "anonymous": false,
      "inputs": [
        {
          "indexed": false,
          "internalType": "uint32",
          "name": "topicID",
          "type": "uint32"
        },
        {
          "indexed": false,
          "internalType": "string",
          "name": "comment",
          "type": "string"
        },
        {
          "indexed": false,
          "internalType": "uint32",
          "name": "likes",
          "type": "uint32"
        },
        {
          "indexed": false,
          "internalType": "uint32",
          "name": "dislikes",
          "type": "uint32"
        },
        {
          "indexed": false,
          "internalType": "uint256",
          "name": "timestamp",
          "type": "uint256"
        }
      ],
      "name": "CommentCreated",
      "type": "event"
    },
    {
      "anonymous": false,
      "inputs": [
        {
          "indexed": false,
          "internalType": "string",
          "name": "topicName",
          "type": "string"
        },
        {
          "indexed": false,
          "internalType": "uint256",
          "name": "timestamp",
          "type": "uint256"
        }
      ],
      "name": "List",
      "type": "event"
    },
    {
      "anonymous": false,
      "inputs": [
        {
          "indexed": true,
          "internalType": "address",
          "name": "previousOwner",
          "type": "address"
        },
        {
          "indexed": true,
          "internalType": "address",
          "name": "newOwner",
          "type": "address"
        }
      ],
      "name": "OwnershipTransferred",
      "type": "event"
    },
    {
      "anonymous": false,
      "inputs": [
        {
          "indexed": false,
          "internalType": "address",
          "name": "account",
          "type": "address"
        }
      ],
      "name": "Paused",
      "type": "event"
    },
    {
      "anonymous": false,
      "inputs": [
        {
          "indexed": true,
          "internalType": "address",
          "name": "user",
          "type": "address"
        },
        {
          "indexed": true,
          "internalType": "uint32",
          "name": "topicID",
          "type": "uint32"
        },
        {
          "indexed": false,
          "internalType": "uint256",
          "name": "amount",
          "type": "uint256"
        }
      ],
      "name": "TokensClaimed",
      "type": "event"
    },
    {
      "anonymous": false,
      "inputs": [
        {
          "indexed": false,
          "internalType": "address",
          "name": "account",
          "type": "address"
        }
      ],
      "name": "Unpaused",
      "type": "event"
    },
    {
      "inputs": [
        {
          "internalType": "uint32",
          "name": "topicID",
          "type": "uint32"
        }
      ],
      "name": "checkAndClaimableReward",
      "outputs": [
        {
          "internalType": "bool",
          "name": "",
          "type": "bool"
        },
        {
          "internalType": "uint256",
          "name": "",
          "type": "uint256"
        }
      ],
      "stateMutability": "view",
      "type": "function"
    },
    {
      "inputs": [
        {
          "internalType": "uint32",
          "name": "topicID",
          "type": "uint32"
        }
      ],
      "name": "claimReward",
      "outputs": [],
      "stateMutability": "nonpayable",
      "type": "function"
    },
    {
      "inputs": [
        {
          "internalType": "uint32",
          "name": "topicID",
          "type": "uint32"
        },
        {
          "internalType": "address",
          "name": "commenter",
          "type": "address"
        },
        {
          "internalType": "string",
          "name": "comment_content",
          "type": "string"
        },
        {
          "internalType": "uint32",
          "name": "likes",
          "type": "uint32"
        },
        {
          "internalType": "uint32",
          "name": "dislikes",
          "type": "uint32"
        }
      ],
      "name": "createComment",
      "outputs": [],
      "stateMutability": "nonpayable",
      "type": "function"
    },
    {
      "inputs": [
        {
          "internalType": "address",
          "name": "userAddress",
          "type": "address"
        },
        {
          "internalType": "uint32",
          "name": "topicID",
          "type": "uint32"
        }
      ],
      "name": "getComment",
      "outputs": [
        {
          "components": [
            {
              "internalType": "address",
              "name": "commenter",
              "type": "address"
            },
            {
              "internalType": "string",
              "name": "content",
              "type": "string"
            },
            {
              "internalType": "uint32",
              "name": "likes",
              "type": "uint32"
            },
            {
              "internalType": "uint32",
              "name": "dislikes",
              "type": "uint32"
            },
            {
              "internalType": "uint256",
              "name": "timestamp",
              "type": "uint256"
            },
            {
              "internalType": "bool",
              "name": "rewarded",
              "type": "bool"
            },
            {
              "internalType": "uint256",
              "name": "claimableTokens",
              "type": "uint256"
            }
          ],
          "internalType": "struct Comment.CommentData",
          "name": "",
          "type": "tuple"
        }
      ],
      "stateMutability": "view",
      "type": "function"
    },
    {
      "inputs": [],
      "name": "owner",
      "outputs": [
        {
          "internalType": "address",
          "name": "",
          "type": "address"
        }
      ],
      "stateMutability": "view",
      "type": "function"
    },
    {
      "inputs": [],
      "name": "paused",
      "outputs": [
        {
          "internalType": "bool",
          "name": "",
          "type": "bool"
        }
      ],
      "stateMutability": "view",
      "type": "function"
    },
    {
      "inputs": [],
      "name": "renounceOwnership",
      "outputs": [],
      "stateMutability": "nonpayable",
      "type": "function"
    },
    {
      "inputs": [],
      "name": "token",
      "outputs": [
        {
          "internalType": "contract RewardToken",
          "name": "",
          "type": "address"
        }
      ],
      "stateMutability": "view",
      "type": "function"
    },
    {
      "inputs": [
        {
          "internalType": "uint32",
          "name": "_id",
          "type": "uint32"
        },
        {
          "internalType": "string",
          "name": "_topicName",
          "type": "string"
        }
      ],
      "name": "topicList",
      "outputs": [],
      "stateMutability": "nonpayable",
      "type": "function"
    },
    {
      "inputs": [
        {
          "internalType": "uint32",
          "name": "",
          "type": "uint32"
        }
      ],
      "name": "topics",
      "outputs": [
        {
          "internalType": "string",
          "name": "topicName",
          "type": "string"
        },
        {
          "internalType": "uint32",
          "name": "commentCount",
          "type": "uint32"
        }
      ],
      "stateMutability": "view",
      "type": "function"
    },
    {
      "inputs": [
        {
          "internalType": "address",
          "name": "newOwner",
          "type": "address"
        }
      ],
      "name": "transferOwnership",
      "outputs": [],
      "stateMutability": "nonpayable",
      "type": "function"
    }
  ],
  "bytecode": "0x60806040523480156200001157600080fd5b506040516200238d3803806200238d83398181016040528101906200003791906200024f565b33600073ffffffffffffffffffffffffffffffffffffffff168173ffffffffffffffffffffffffffffffffffffffff1603620000ad5760006040517f1e4fbdf7000000000000000000000000000000000000000000000000000000008152600401620000a4919062000292565b60405180910390fd5b620000be816200012160201b60201c565b5060008060146101000a81548160ff02191690831515021790555080600260006101000a81548173ffffffffffffffffffffffffffffffffffffffff021916908373ffffffffffffffffffffffffffffffffffffffff16021790555050620002af565b60008060009054906101000a900473ffffffffffffffffffffffffffffffffffffffff169050816000806101000a81548173ffffffffffffffffffffffffffffffffffffffff021916908373ffffffffffffffffffffffffffffffffffffffff1602179055508173ffffffffffffffffffffffffffffffffffffffff168173ffffffffffffffffffffffffffffffffffffffff167f8be0079c531659141344cd1fd0a4f28419497f9722a3daafe3b4186f6b6457e060405160405180910390a35050565b600080fd5b600073ffffffffffffffffffffffffffffffffffffffff82169050919050565b60006200021782620001ea565b9050919050565b62000229816200020a565b81146200023557600080fd5b50565b60008151905062000249816200021e565b92915050565b600060208284031215620002685762000267620001e5565b5b6000620002788482850162000238565b91505092915050565b6200028c816200020a565b82525050565b6000602082019050620002a9600083018462000281565b92915050565b6120ce80620002bf6000396000f3fe608060405234801561001057600080fd5b50600436106100a95760003560e01c80638da5cb5b116100715780638da5cb5b146101545780639b2ba08414610172578063b7669fd71461018e578063b7aa7803146101be578063f2fde38b146101da578063fc0c546a146101f6576100a9565b80635b5a130a146100ae5780635c975abb146100df5780636062ca11146100fd57806361313b391461012e578063715018a61461014a575b600080fd5b6100c860048036038101906100c39190611217565b610214565b6040516100d69291906112e3565b60405180910390f35b6100e76102d0565b6040516100f4919061132e565b60405180910390f35b61011760048036038101906101129190611217565b6102e6565b604051610125929190611362565b60405180910390f35b61014860048036038101906101439190611217565b610494565b005b610152610830565b005b61015c610844565b60405161016991906113cc565b60405180910390f35b61018c6004803603810190610187919061151c565b61086d565b005b6101a860048036038101906101a391906115a4565b61090c565b6040516101b59190611706565b60405180910390f35b6101d860048036038101906101d39190611728565b610ae9565b005b6101f460048036038101906101ef91906117bf565b610f1f565b005b6101fe610fa5565b60405161020b919061184b565b60405180910390f35b600160205280600052604060002060009150905080600001805461023790611895565b80601f016020809104026020016040519081016040528092919081815260200182805461026390611895565b80156102b05780601f10610285576101008083540402835291602001916102b0565b820191906000526020600020905b81548152906001019060200180831161029357829003601f168201915b5050505050908060020160009054906101000a900463ffffffff16905082565b60008060149054906101000a900460ff16905090565b600080826000600160008363ffffffff1663ffffffff16815260200190815260200160002060010160003373ffffffffffffffffffffffffffffffffffffffff1673ffffffffffffffffffffffffffffffffffffffff168152602001908152602001600020600101805461035990611895565b90501161039b576040517f08c379a000000000000000000000000000000000000000000000000000000000815260040161039290611912565b60405180910390fd5b6000600160008663ffffffff1663ffffffff16815260200190815260200160002060010160003373ffffffffffffffffffffffffffffffffffffffff1673ffffffffffffffffffffffffffffffffffffffff168152602001908152602001600020905060a08160020160049054906101000a900463ffffffff1661041f9190611961565b63ffffffff1660648260020160009054906101000a900463ffffffff166104469190611961565b63ffffffff161015801561046957508060040160009054906101000a900460ff16155b156104855760008160050154905060018194509450505061048e565b60008093509350505b50915091565b806000600160008363ffffffff1663ffffffff16815260200190815260200160002060010160003373ffffffffffffffffffffffffffffffffffffffff1673ffffffffffffffffffffffffffffffffffffffff168152602001908152602001600020600101805461050490611895565b905011610546576040517f08c379a000000000000000000000000000000000000000000000000000000000815260040161053d90611912565b60405180910390fd5b6000600160008463ffffffff1663ffffffff16815260200190815260200160002060010160003373ffffffffffffffffffffffffffffffffffffffff1673ffffffffffffffffffffffffffffffffffffffff16815260200190815260200160002090503373ffffffffffffffffffffffffffffffffffffffff168160000160009054906101000a900473ffffffffffffffffffffffffffffffffffffffff1673ffffffffffffffffffffffffffffffffffffffff161461063b576040517f08c379a000000000000000000000000000000000000000000000000000000000815260040161063290611a10565b60405180910390fd5b60a08160020160049054906101000a900463ffffffff1661065c9190611961565b63ffffffff1660648260020160009054906101000a900463ffffffff166106839190611961565b63ffffffff1610156106ca576040517f08c379a00000000000000000000000000000000000000000000000000000000081526004016106c190611aa2565b60405180910390fd5b8060040160009054906101000a900460ff161561071c576040517f08c379a000000000000000000000000000000000000000000000000000000000815260040161071390611b34565b60405180910390fd5b6000670de0b6b3a76400009050600260009054906101000a900473ffffffffffffffffffffffffffffffffffffffff1673ffffffffffffffffffffffffffffffffffffffff166340c10f1933836040518363ffffffff1660e01b8152600401610786929190611b54565b600060405180830381600087803b1580156107a057600080fd5b505af11580156107b4573d6000803e3d6000fd5b5050505060018260040160006101000a81548160ff0219169083151502179055508363ffffffff163373ffffffffffffffffffffffffffffffffffffffff167f7a999cc17500fb85388b0d390c00899b873b4d01c8c14c2fc141a1cf517917d2836040516108229190611b7d565b60405180910390a350505050565b610838610fcb565b6108426000611052565b565b60008060009054906101000a900473ffffffffffffffffffffffffffffffffffffffff16905090565b610875610fcb565b6000600160008463ffffffff1663ffffffff1681526020019081526020016000209050818160000190816108a99190611d3a565b5060008160020160006101000a81548163ffffffff021916908363ffffffff1602179055507f6777458730c06ba2ecf56a9f5a54676fc11f8b7da73424b020dd4dc6630f5fc082426040516108ff929190611e0c565b60405180910390a1505050565b610914611166565b600160008363ffffffff1663ffffffff16815260200190815260200160002060010160008473ffffffffffffffffffffffffffffffffffffffff1673ffffffffffffffffffffffffffffffffffffffff1681526020019081526020016000206040518060e00160405290816000820160009054906101000a900473ffffffffffffffffffffffffffffffffffffffff1673ffffffffffffffffffffffffffffffffffffffff1673ffffffffffffffffffffffffffffffffffffffff1681526020016001820180546109e490611895565b80601f0160208091040260200160405190810160405280929190818152602001828054610a1090611895565b8015610a5d5780601f10610a3257610100808354040283529160200191610a5d565b820191906000526020600020905b815481529060010190602001808311610a4057829003601f168201915b505050505081526020016002820160009054906101000a900463ffffffff1663ffffffff1663ffffffff1681526020016002820160049054906101000a900463ffffffff1663ffffffff1663ffffffff168152602001600382015481526020016004820160009054906101000a900460ff16151515158152602001600582015481525050905092915050565b846000600160008363ffffffff1663ffffffff16815260200190815260200160002060010160003373ffffffffffffffffffffffffffffffffffffffff1673ffffffffffffffffffffffffffffffffffffffff1681526020019081526020016000206001018054610b5990611895565b905014610b9b576040517f08c379a0000000000000000000000000000000000000000000000000000000008152600401610b9290611e88565b60405180910390fd5b6000845111610bdf576040517f08c379a0000000000000000000000000000000000000000000000000000000008152600401610bd690611ef4565b60405180910390fd5b6000600160008863ffffffff1663ffffffff1681526020019081526020016000206000018054610c0e90611895565b905011610c50576040517f08c379a0000000000000000000000000000000000000000000000000000000008152600401610c4790611f60565b60405180910390fd5b60648363ffffffff16118015610c8a575060a082610c6e9190611961565b63ffffffff16606484610c819190611961565b63ffffffff1610155b610cc9576040517f08c379a0000000000000000000000000000000000000000000000000000000008152600401610cc090611ff2565b60405180910390fd5b6000610cd58484611116565b905060006040518060e001604052808873ffffffffffffffffffffffffffffffffffffffff1681526020018781526020018663ffffffff1681526020018563ffffffff16815260200142815260200160001515815260200183815250905080600160008a63ffffffff1663ffffffff16815260200190815260200160002060010160008973ffffffffffffffffffffffffffffffffffffffff1673ffffffffffffffffffffffffffffffffffffffff16815260200190815260200160002060008201518160000160006101000a81548173ffffffffffffffffffffffffffffffffffffffff021916908373ffffffffffffffffffffffffffffffffffffffff1602179055506020820151816001019081610def9190611d3a565b5060408201518160020160006101000a81548163ffffffff021916908363ffffffff16021790555060608201518160020160046101000a81548163ffffffff021916908363ffffffff1602179055506080820151816003015560a08201518160040160006101000a81548160ff02191690831515021790555060c08201518160050155905050600160008963ffffffff1663ffffffff168152602001908152602001600020600201600081819054906101000a900463ffffffff1680929190610eb790612012565b91906101000a81548163ffffffff021916908363ffffffff160217905550507f5d67d281a359996efac5d3ef352720c5446f9b440e7c9921953a5bb267d3370a8887878742604051610f0d95949392919061203e565b60405180910390a15050505050505050565b610f27610fcb565b600073ffffffffffffffffffffffffffffffffffffffff168173ffffffffffffffffffffffffffffffffffffffff1603610f995760006040517f1e4fbdf7000000000000000000000000000000000000000000000000000000008152600401610f9091906113cc565b60405180910390fd5b610fa281611052565b50565b600260009054906101000a900473ffffffffffffffffffffffffffffffffffffffff1681565b610fd361115e565b73ffffffffffffffffffffffffffffffffffffffff16610ff1610844565b73ffffffffffffffffffffffffffffffffffffffff16146110505761101461115e565b6040517f118cdaa700000000000000000000000000000000000000000000000000000000815260040161104791906113cc565b60405180910390fd5b565b60008060009054906101000a900473ffffffffffffffffffffffffffffffffffffffff169050816000806101000a81548173ffffffffffffffffffffffffffffffffffffffff021916908373ffffffffffffffffffffffffffffffffffffffff1602179055508173ffffffffffffffffffffffffffffffffffffffff168173ffffffffffffffffffffffffffffffffffffffff167f8be0079c531659141344cd1fd0a4f28419497f9722a3daafe3b4186f6b6457e060405160405180910390a35050565b600060a0826111259190611961565b63ffffffff166064846111389190611961565b63ffffffff161061115357670de0b6b3a76400009050611158565b600090505b92915050565b600033905090565b6040518060e00160405280600073ffffffffffffffffffffffffffffffffffffffff16815260200160608152602001600063ffffffff168152602001600063ffffffff16815260200160008152602001600015158152602001600081525090565b6000604051905090565b600080fd5b600080fd5b600063ffffffff82169050919050565b6111f4816111db565b81146111ff57600080fd5b50565b600081359050611211816111eb565b92915050565b60006020828403121561122d5761122c6111d1565b5b600061123b84828501611202565b91505092915050565b600081519050919050565b600082825260208201905092915050565b60005b8381101561127e578082015181840152602081019050611263565b60008484015250505050565b6000601f19601f8301169050919050565b60006112a682611244565b6112b0818561124f565b93506112c0818560208601611260565b6112c98161128a565b840191505092915050565b6112dd816111db565b82525050565b600060408201905081810360008301526112fd818561129b565b905061130c60208301846112d4565b9392505050565b60008115159050919050565b61132881611313565b82525050565b6000602082019050611343600083018461131f565b92915050565b6000819050919050565b61135c81611349565b82525050565b6000604082019050611377600083018561131f565b6113846020830184611353565b9392505050565b600073ffffffffffffffffffffffffffffffffffffffff82169050919050565b60006113b68261138b565b9050919050565b6113c6816113ab565b82525050565b60006020820190506113e160008301846113bd565b92915050565b600080fd5b600080fd5b7f4e487b7100000000000000000000000000000000000000000000000000000000600052604160045260246000fd5b6114298261128a565b810181811067ffffffffffffffff82111715611448576114476113f1565b5b80604052505050565b600061145b6111c7565b90506114678282611420565b919050565b600067ffffffffffffffff821115611487576114866113f1565b5b6114908261128a565b9050602081019050919050565b82818337600083830152505050565b60006114bf6114ba8461146c565b611451565b9050828152602081018484840111156114db576114da6113ec565b5b6114e684828561149d565b509392505050565b600082601f830112611503576115026113e7565b5b81356115138482602086016114ac565b91505092915050565b60008060408385031215611533576115326111d1565b5b600061154185828601611202565b925050602083013567ffffffffffffffff811115611562576115616111d6565b5b61156e858286016114ee565b9150509250929050565b611581816113ab565b811461158c57600080fd5b50565b60008135905061159e81611578565b92915050565b600080604083850312156115bb576115ba6111d1565b5b60006115c98582860161158f565b92505060206115da85828601611202565b9150509250929050565b6115ed816113ab565b82525050565b600082825260208201905092915050565b600061160f82611244565b61161981856115f3565b9350611629818560208601611260565b6116328161128a565b840191505092915050565b611646816111db565b82525050565b61165581611349565b82525050565b61166481611313565b82525050565b600060e08301600083015161168260008601826115e4565b506020830151848203602086015261169a8282611604565b91505060408301516116af604086018261163d565b5060608301516116c2606086018261163d565b5060808301516116d5608086018261164c565b5060a08301516116e860a086018261165b565b5060c08301516116fb60c086018261164c565b508091505092915050565b60006020820190508181036000830152611720818461166a565b905092915050565b600080600080600060a08688031215611744576117436111d1565b5b600061175288828901611202565b95505060206117638882890161158f565b945050604086013567ffffffffffffffff811115611784576117836111d6565b5b611790888289016114ee565b93505060606117a188828901611202565b92505060806117b288828901611202565b9150509295509295909350565b6000602082840312156117d5576117d46111d1565b5b60006117e38482850161158f565b91505092915050565b6000819050919050565b600061181161180c6118078461138b565b6117ec565b61138b565b9050919050565b6000611823826117f6565b9050919050565b600061183582611818565b9050919050565b6118458161182a565b82525050565b6000602082019050611860600083018461183c565b92915050565b7f4e487b7100000000000000000000000000000000000000000000000000000000600052602260045260246000fd5b600060028204905060018216806118ad57607f821691505b6020821081036118c0576118bf611866565b5b50919050565b7f4e6f20636f6d6d656e742076616c696420666f72207265776172640000000000600082015250565b60006118fc601b8361124f565b9150611907826118c6565b602082019050919050565b6000602082019050818103600083015261192b816118ef565b9050919050565b7f4e487b7100000000000000000000000000000000000000000000000000000000600052601160045260246000fd5b600061196c826111db565b9150611977836111db565b9250828202611985816111db565b915080821461199757611996611932565b5b5092915050565b7f4f6e6c7920746865206f726967696e616c20636f6d6d656e7465722063616e2060008201527f636c61696d207468652072657761726400000000000000000000000000000000602082015250565b60006119fa60308361124f565b9150611a058261199e565b604082019050919050565b60006020820190508181036000830152611a29816119ed565b9050919050565b7f4c696b657320617265206e6f742073756666696369656e7420746f20636c616960008201527f6d20726577617264000000000000000000000000000000000000000000000000602082015250565b6000611a8c60288361124f565b9150611a9782611a30565b604082019050919050565b60006020820190508181036000830152611abb81611a7f565b9050919050565b7f52657761726420616c726561647920636c61696d656420666f7220746869732060008201527f636f6d6d656e7400000000000000000000000000000000000000000000000000602082015250565b6000611b1e60278361124f565b9150611b2982611ac2565b604082019050919050565b60006020820190508181036000830152611b4d81611b11565b9050919050565b6000604082019050611b6960008301856113bd565b611b766020830184611353565b9392505050565b6000602082019050611b926000830184611353565b92915050565b60008190508160005260206000209050919050565b60006020601f8301049050919050565b600082821b905092915050565b600060088302611bfa7fffffffffffffffffffffffffffffffffffffffffffffffffffffffffffffffff82611bbd565b611c048683611bbd565b95508019841693508086168417925050509392505050565b6000611c37611c32611c2d84611349565b6117ec565b611349565b9050919050565b6000819050919050565b611c5183611c1c565b611c65611c5d82611c3e565b848454611bca565b825550505050565b600090565b611c7a611c6d565b611c85818484611c48565b505050565b5b81811015611ca957611c9e600082611c72565b600181019050611c8b565b5050565b601f821115611cee57611cbf81611b98565b611cc884611bad565b81016020851015611cd7578190505b611ceb611ce385611bad565b830182611c8a565b50505b505050565b600082821c905092915050565b6000611d1160001984600802611cf3565b1980831691505092915050565b6000611d2a8383611d00565b9150826002028217905092915050565b611d4382611244565b67ffffffffffffffff811115611d5c57611d5b6113f1565b5b611d668254611895565b611d71828285611cad565b600060209050601f831160018114611da45760008415611d92578287015190505b611d9c8582611d1e565b865550611e04565b601f198416611db286611b98565b60005b82811015611dda57848901518255600182019150602085019450602081019050611db5565b86831015611df75784890151611df3601f891682611d00565b8355505b6001600288020188555050505b505050505050565b60006040820190508181036000830152611e26818561129b565b9050611e356020830184611353565b9392505050565b7f596f75206861766520616c726561647920636f6d6d656e746564000000000000600082015250565b6000611e72601a8361124f565b9150611e7d82611e3c565b602082019050919050565b60006020820190508181036000830152611ea181611e65565b9050919050565b7f436f6d6d656e7420636f6e74656e742063616e6e6f7420626520656d70747900600082015250565b6000611ede601f8361124f565b9150611ee982611ea8565b602082019050919050565b60006020820190508181036000830152611f0d81611ed1565b9050919050565b7f546f70696320646f6573206e6f74206578697374000000000000000000000000600082015250565b6000611f4a60148361124f565b9150611f5582611f14565b602082019050919050565b60006020820190508181036000830152611f7981611f3d565b9050919050565b7f436f6d6d656e7420646964206e6f7420726561636820363025206d6f7265206c60008201527f696b6573207468616e206469736c696b65730000000000000000000000000000602082015250565b6000611fdc60328361124f565b9150611fe782611f80565b604082019050919050565b6000602082019050818103600083015261200b81611fcf565b9050919050565b600061201d826111db565b915063ffffffff820361203357612032611932565b5b600182019050919050565b600060a08201905061205360008301886112d4565b8181036020830152612065818761129b565b905061207460408301866112d4565b61208160608301856112d4565b61208e6080830184611353565b969550505050505056fea2646970667358221220f097dffbc55403de971a56c2c1de0d100d6495d26881d10e8da1ed9b5925900464736f6c63430008180033",
  "linkReferences": {},
  "deployedLinkReferences": {}
}